{
  "address": "0x746052CA8273E4B0dD6A355eEB2C81683c2C40a0",
  "abi": [
    {
      "inputs": [
        {
          "internalType": "address",
          "name": "tokenRewards_",
          "type": "address"
        },
        {
          "internalType": "uint256",
          "name": "vestingBlocks_",
          "type": "uint256"
        },
        {
          "internalType": "address",
          "name": "treasury_",
          "type": "address"
        }
      ],
      "stateMutability": "nonpayable",
      "type": "constructor"
    },
    {
      "anonymous": false,
      "inputs": [
        {
          "indexed": false,
          "internalType": "address",
          "name": "addr",
          "type": "address"
        },
        {
          "indexed": false,
          "internalType": "address",
          "name": "token",
          "type": "address"
        },
        {
          "indexed": false,
          "internalType": "uint256",
          "name": "amount",
          "type": "uint256"
        },
        {
          "indexed": false,
          "internalType": "uint256",
          "name": "rewards",
          "type": "uint256"
        },
        {
          "indexed": false,
          "internalType": "uint256",
          "name": "block",
          "type": "uint256"
        },
        {
          "indexed": false,
          "internalType": "uint256",
          "name": "bondId",
          "type": "uint256"
        }
      ],
      "name": "LogBond",
      "type": "event"
    },
    {
      "anonymous": false,
      "inputs": [
        {
          "indexed": false,
          "internalType": "address",
          "name": "addr",
          "type": "address"
        },
        {
          "indexed": false,
          "internalType": "uint256",
          "name": "index",
          "type": "uint256"
        },
        {
          "indexed": false,
          "internalType": "uint256",
          "name": "rewards",
          "type": "uint256"
        }
      ],
      "name": "LogClaim",
      "type": "event"
    },
    {
      "anonymous": false,
      "inputs": [
        {
          "indexed": false,
          "internalType": "address",
          "name": "token",
          "type": "address"
        },
        {
          "indexed": false,
          "internalType": "uint256",
          "name": "rewardsRatio",
          "type": "uint256"
        }
      ],
      "name": "LogSetRewards",
      "type": "event"
    },
    {
      "anonymous": false,
      "inputs": [
        {
          "indexed": true,
          "internalType": "address",
          "name": "previousOwner",
          "type": "address"
        },
        {
          "indexed": true,
          "internalType": "address",
          "name": "newOwner",
          "type": "address"
        }
      ],
      "name": "OwnershipTransferred",
      "type": "event"
    },
    {
      "inputs": [
        {
          "internalType": "address",
          "name": "token",
          "type": "address"
        },
        {
          "internalType": "uint256",
          "name": "amount",
          "type": "uint256"
        }
      ],
      "name": "bond",
      "outputs": [
        {
          "internalType": "uint256",
          "name": "bondId",
          "type": "uint256"
        }
      ],
      "stateMutability": "nonpayable",
      "type": "function"
    },
    {
      "inputs": [
        {
          "internalType": "address",
          "name": "",
          "type": "address"
        },
        {
          "internalType": "uint256",
          "name": "",
          "type": "uint256"
        }
      ],
      "name": "bonds",
      "outputs": [
        {
          "internalType": "address",
          "name": "token",
          "type": "address"
        },
        {
          "internalType": "uint256",
          "name": "amount",
          "type": "uint256"
        },
        {
          "internalType": "uint256",
          "name": "rewards",
          "type": "uint256"
        },
        {
          "internalType": "uint256",
          "name": "claimed",
          "type": "uint256"
        },
        {
          "internalType": "uint256",
          "name": "block",
          "type": "uint256"
        }
      ],
      "stateMutability": "view",
      "type": "function"
    },
    {
      "inputs": [
        {
          "internalType": "address",
          "name": "addr",
          "type": "address"
        }
      ],
      "name": "bondsCount",
      "outputs": [
        {
          "internalType": "uint256",
          "name": "",
          "type": "uint256"
        }
      ],
      "stateMutability": "view",
      "type": "function"
    },
    {
      "inputs": [],
      "name": "claim",
      "outputs": [
        {
          "internalType": "uint256",
          "name": "claimed",
          "type": "uint256"
        }
      ],
      "stateMutability": "nonpayable",
      "type": "function"
    },
    {
      "inputs": [
        {
          "internalType": "uint256",
          "name": "index",
          "type": "uint256"
        }
      ],
      "name": "claimBond",
      "outputs": [
        {
          "internalType": "uint256",
          "name": "claimed",
          "type": "uint256"
        }
      ],
      "stateMutability": "nonpayable",
      "type": "function"
    },
    {
      "inputs": [],
      "name": "owner",
      "outputs": [
        {
          "internalType": "address",
          "name": "",
          "type": "address"
        }
      ],
      "stateMutability": "view",
      "type": "function"
    },
    {
      "inputs": [],
      "name": "renounceOwnership",
      "outputs": [],
      "stateMutability": "nonpayable",
      "type": "function"
    },
    {
      "inputs": [
        {
          "internalType": "address",
          "name": "addr",
          "type": "address"
        },
        {
          "internalType": "uint256",
          "name": "index",
          "type": "uint256"
        }
      ],
      "name": "rewardsBondOf",
      "outputs": [
        {
          "internalType": "uint256",
          "name": "rewards",
          "type": "uint256"
        },
        {
          "internalType": "uint256",
          "name": "rewardsClaimed",
          "type": "uint256"
        },
        {
          "internalType": "uint256",
          "name": "rewardsClaimable",
          "type": "uint256"
        }
      ],
      "stateMutability": "view",
      "type": "function"
    },
    {
      "inputs": [
        {
          "internalType": "address",
          "name": "addr",
          "type": "address"
        }
      ],
      "name": "rewardsOf",
      "outputs": [
        {
          "internalType": "uint256",
          "name": "rewards",
          "type": "uint256"
        },
        {
          "internalType": "uint256",
          "name": "rewardsClaimed",
          "type": "uint256"
        },
        {
          "internalType": "uint256",
          "name": "rewardsClaimable",
          "type": "uint256"
        }
      ],
      "stateMutability": "view",
      "type": "function"
    },
    {
      "inputs": [
        {
          "internalType": "address",
          "name": "",
          "type": "address"
        }
      ],
      "name": "rewardsRatio",
      "outputs": [
        {
          "internalType": "uint256",
          "name": "",
          "type": "uint256"
        }
      ],
      "stateMutability": "view",
      "type": "function"
    },
    {
      "inputs": [
        {
          "internalType": "address",
          "name": "token",
          "type": "address"
        },
        {
          "internalType": "uint256",
          "name": "tokenRewardsRatio",
          "type": "uint256"
        }
      ],
      "name": "setRewards",
      "outputs": [],
      "stateMutability": "nonpayable",
      "type": "function"
    },
    {
      "inputs": [
        {
          "internalType": "address",
          "name": "treasury_",
          "type": "address"
        }
      ],
      "name": "setTreasury",
      "outputs": [],
      "stateMutability": "nonpayable",
      "type": "function"
    },
    {
      "inputs": [
        {
          "internalType": "uint256",
          "name": "vestingBlocks_",
          "type": "uint256"
        }
      ],
      "name": "setVestingBlocks",
      "outputs": [],
      "stateMutability": "nonpayable",
      "type": "function"
    },
    {
      "inputs": [],
      "name": "tokenRewards",
      "outputs": [
        {
          "internalType": "address",
          "name": "",
          "type": "address"
        }
      ],
      "stateMutability": "view",
      "type": "function"
    },
    {
      "inputs": [],
      "name": "totalClaimedRewards",
      "outputs": [
        {
          "internalType": "uint256",
          "name": "",
          "type": "uint256"
        }
      ],
      "stateMutability": "view",
      "type": "function"
    },
    {
      "inputs": [],
      "name": "totalRewards",
      "outputs": [
        {
          "internalType": "uint256",
          "name": "",
          "type": "uint256"
        }
      ],
      "stateMutability": "view",
      "type": "function"
    },
    {
      "inputs": [
        {
          "internalType": "address",
          "name": "newOwner",
          "type": "address"
        }
      ],
      "name": "transferOwnership",
      "outputs": [],
      "stateMutability": "nonpayable",
      "type": "function"
    },
    {
      "inputs": [],
      "name": "treasury",
      "outputs": [
        {
          "internalType": "address",
          "name": "",
          "type": "address"
        }
      ],
      "stateMutability": "view",
      "type": "function"
    },
    {
      "inputs": [],
      "name": "vestingBlocks",
      "outputs": [
        {
          "internalType": "uint256",
          "name": "",
          "type": "uint256"
        }
      ],
      "stateMutability": "view",
      "type": "function"
    },
    {
      "inputs": [
        {
          "internalType": "address",
          "name": "token",
          "type": "address"
        },
        {
          "internalType": "uint256",
          "name": "amount",
          "type": "uint256"
        }
      ],
      "name": "withdraw",
      "outputs": [],
      "stateMutability": "nonpayable",
      "type": "function"
    }
  ],
  "transactionHash": "0x93a9a51dd30433645a1ef7c2f465dfe7ed52ae4c2ecc460a2904305608321f3b",
  "args": [
    "0xEaf624Ea9ba942CA9D3e65888e9EC30e904229C3",
    32300,
    "0x453764595d2a5464eDC277F45fe403B735311062"
  ],
  "numDeployments": 1,
  "solcInputHash": "6ac41b039d5e237623456e5742a4285e",
  "bytecode": "0x60a06040523480156200001157600080fd5b50604051620014d3380380620014d383398101604081905262000034916200029b565b6200003f33620000c7565b6001600160a01b0383166200009b5760405162461bcd60e51b815260206004820152601460248201527f496e76616c69642052657761726420746f6b656e00000000000000000000000060448201526064015b60405180910390fd5b6001600160a01b038316608052620000b38262000117565b620000be81620001b9565b505050620002dc565b600080546001600160a01b038381166001600160a01b0319831681178455604051919092169283917f8be0079c531659141344cd1fd0a4f28419497f9722a3daafe3b4186f6b6457e09190a35050565b6000546001600160a01b03163314620001625760405162461bcd60e51b81526020600482018190526024820152600080516020620014b3833981519152604482015260640162000092565b60008111620001b45760405162461bcd60e51b815260206004820152601d60248201527f496e76616c69642056657374696e6720626c6f636b73206e756d626572000000604482015260640162000092565b600255565b6000546001600160a01b03163314620002045760405162461bcd60e51b81526020600482018190526024820152600080516020620014b3833981519152604482015260640162000092565b6001600160a01b0381166200025c5760405162461bcd60e51b815260206004820152601860248201527f496e76616c696420547265617375727920616464726573730000000000000000604482015260640162000092565b600680546001600160a01b0319166001600160a01b0392909216919091179055565b80516001600160a01b03811681146200029657600080fd5b919050565b600080600060608486031215620002b157600080fd5b620002bc846200027e565b925060208401519150620002d3604085016200027e565b90509250925092565b6080516111ad620003066000396000818161013601528181610411015261048501526111ad6000f3fe608060405234801561001057600080fd5b506004361061012c5760003560e01c80638da5cb5b116100ad578063eafba8be11610071578063eafba8be146102d3578063f0f44260146102e6578063f2fde38b146102f9578063f3fef3a31461030c578063fee1a9c81461031f57600080fd5b80638da5cb5b1461026a578063a515366a1461027b578063ac43f3661461028e578063b451ae4a146102a1578063d578ceab146102ca57600080fd5b8063479ba7ae116100f4578063479ba7ae146102045780634e71d92d1461023257806361d027b31461023a578063715018a61461024d57806380c15aaa1461025757600080fd5b8063091c76f5146101315780630e15561a146101755780631c08c08e1461018c578063202160fd1461019f578063327d83b8146101bf575b600080fd5b6101587f000000000000000000000000000000000000000000000000000000000000000081565b6040516001600160a01b0390911681526020015b60405180910390f35b61017e60045481565b60405190815260200161016c565b61017e61019a366004610f79565b610328565b61017e6101ad366004610fae565b60016020526000908152604090205481565b6101d26101cd366004610fc9565b6104f8565b604080516001600160a01b0390961686526020860194909452928401919091526060830152608082015260a00161016c565b610217610212366004610fae565b610550565b6040805193845260208401929092529082015260600161016c565b61017e6105cf565b600654610158906001600160a01b031681565b610255610615565b005b610255610265366004610fc9565b610654565b6000546001600160a01b0316610158565b61017e610289366004610fc9565b610723565b61025561029c366004610f79565b610904565b61017e6102af366004610fae565b6001600160a01b031660009081526003602052604090205490565b61017e60055481565b6102176102e1366004610fc9565b610983565b6102556102f4366004610fae565b610a26565b610255610307366004610fae565b610ac8565b61025561031a366004610fc9565b610b63565b61017e60025481565b33600090815260036020526040812080548291908490811061034c5761034c610ff3565b600091825260208083206040805160a081018252600590940290910180546001600160a01b03168452600181015492840192909252600282015490830152600381015460608301526004810154608083015292506103a990610bab565b905080156104b057808260030160008282546103c5919061101f565b9250508190555080600560008282546103de919061101f565b90915550506002820154600383015411156103fb576103fb611037565b604051636310dfc560e11b8152600481018290527f00000000000000000000000000000000000000000000000000000000000000006001600160a01b03169063c621bf8a90602401600060405180830381600087803b15801561045d57600080fd5b505af1158015610471573d6000803e3d6000fd5b50506006546104b092506001600160a01b037f000000000000000000000000000000000000000000000000000000000000000081169250163384610c37565b60408051338152602081018690529081018490527f9a4772cd5c0946aaea956f025c3bd64f5b4464abfaa006dbfc1ffe104b89ef2f9060600160405180910390a15050919050565b6003602052816000526040600020818154811061051457600080fd5b6000918252602090912060059091020180546001820154600283015460038401546004909401546001600160a01b039093169550909350919085565b60008080805b6001600160a01b0385166000908152600360205260409020548110156105c75760008060006105858885610983565b91945092509050610596838861101f565b96506105a2828761101f565b95506105ae818661101f565b94505050506001816105c0919061101f565b9050610556565b509193909250565b6000805b33600090815260036020526040902054811015610611576105f381610328565b6105fd908361101f565b915061060a60018261101f565b90506105d3565b5090565b6000546001600160a01b031633146106485760405162461bcd60e51b815260040161063f9061104d565b60405180910390fd5b6106526000610ca8565b565b6000546001600160a01b0316331461067e5760405162461bcd60e51b815260040161063f9061104d565b6001600160a01b0382166106cb5760405162461bcd60e51b815260206004820152601460248201527324b73b30b634b2102932bbb0b932103a37b5b2b760611b604482015260640161063f565b6001600160a01b038216600081815260016020908152604091829020849055815192835282018390527f6510bc177b221b83db45f8daeddbea4c053d983b9505fd7a4810528e5e5826cb910160405180910390a15050565b6001600160a01b03821660009081526001602052604081205461077c5760405162461bcd60e51b8152602060048201526011602482015270151bdad95b881b9bdd08185b1b1bddd959607a1b604482015260640161063f565b6107916001600160a01b038416333085610c37565b6107cc6040518060a0016040528060006001600160a01b03168152602001600081526020016000815260200160008152602001600081525090565b6001600160a01b03841680825260208083018590524360808401526000918252600190526040812054633b9aca00906108059086611082565b61080f91906110a1565b905080826040018181525050806004600082825461082d919061101f565b90915550503360008181526003602081815260408084208054600180820183559186529483902088516005870290910180546001600160a01b0319166001600160a01b0390921691821781558985015192810183905589840151600282018190556060808c0151978301979097556080808c015160049093018390558551998a5295890192909252928701919091529285019290925283015260a0820181905293507f052c36ae0feaf423139c51ade3446fd2170796d06cb1fb368243a368921ed79b9060c00160405180910390a1505092915050565b6000546001600160a01b0316331461092e5760405162461bcd60e51b815260040161063f9061104d565b6000811161097e5760405162461bcd60e51b815260206004820152601d60248201527f496e76616c69642056657374696e6720626c6f636b73206e756d626572000000604482015260640161063f565b600255565b6001600160a01b0382166000908152600360205260408120805482918291829190869081106109b4576109b4610ff3565b60009182526020918290206040805160a081018252600590930290910180546001600160a01b031683526001810154938301939093526002830154908201819052600383015460608301819052600490930154608083015295509093509050610a1c81610bab565b9150509250925092565b6000546001600160a01b03163314610a505760405162461bcd60e51b815260040161063f9061104d565b6001600160a01b038116610aa65760405162461bcd60e51b815260206004820152601860248201527f496e76616c696420547265617375727920616464726573730000000000000000604482015260640161063f565b600680546001600160a01b0319166001600160a01b0392909216919091179055565b6000546001600160a01b03163314610af25760405162461bcd60e51b815260040161063f9061104d565b6001600160a01b038116610b575760405162461bcd60e51b815260206004820152602660248201527f4f776e61626c653a206e6577206f776e657220697320746865207a65726f206160448201526564647265737360d01b606482015260840161063f565b610b6081610ca8565b50565b6000546001600160a01b03163314610b8d5760405162461bcd60e51b815260040161063f9061104d565b600654610ba7906001600160a01b03848116911683610cf8565b5050565b60008160800151431015610bc157610bc1611037565b6000826080015143610bd391906110c3565b90506000600254821015610c0557600254828560400151610bf49190611082565b610bfe91906110a1565b9050610c0c565b5060408301515b8360600151811015610c2057610c20611037565b6060840151610c2f90826110c3565b949350505050565b6040516001600160a01b0380851660248301528316604482015260648101829052610ca29085906323b872dd60e01b906084015b60408051601f198184030181529190526020810180516001600160e01b03166001600160e01b031990931692909217909152610d2d565b50505050565b600080546001600160a01b038381166001600160a01b0319831681178455604051919092169283917f8be0079c531659141344cd1fd0a4f28419497f9722a3daafe3b4186f6b6457e09190a35050565b6040516001600160a01b038316602482015260448101829052610d2890849063a9059cbb60e01b90606401610c6b565b505050565b6000610d82826040518060400160405280602081526020017f5361666545524332303a206c6f772d6c6576656c2063616c6c206661696c6564815250856001600160a01b0316610dff9092919063ffffffff16565b805190915015610d285780806020019051810190610da091906110da565b610d285760405162461bcd60e51b815260206004820152602a60248201527f5361666545524332303a204552433230206f7065726174696f6e20646964206e6044820152691bdd081cdd58d8d9595960b21b606482015260840161063f565b6060610e0e8484600085610e18565b90505b9392505050565b606082471015610e795760405162461bcd60e51b815260206004820152602660248201527f416464726573733a20696e73756666696369656e742062616c616e636520666f6044820152651c8818d85b1b60d21b606482015260840161063f565b843b610ec75760405162461bcd60e51b815260206004820152601d60248201527f416464726573733a2063616c6c20746f206e6f6e2d636f6e7472616374000000604482015260640161063f565b600080866001600160a01b03168587604051610ee39190611128565b60006040518083038185875af1925050503d8060008114610f20576040519150601f19603f3d011682016040523d82523d6000602084013e610f25565b606091505b5091509150610f35828286610f40565b979650505050505050565b60608315610f4f575081610e11565b825115610f5f5782518084602001fd5b8160405162461bcd60e51b815260040161063f9190611144565b600060208284031215610f8b57600080fd5b5035919050565b80356001600160a01b0381168114610fa957600080fd5b919050565b600060208284031215610fc057600080fd5b610e1182610f92565b60008060408385031215610fdc57600080fd5b610fe583610f92565b946020939093013593505050565b634e487b7160e01b600052603260045260246000fd5b634e487b7160e01b600052601160045260246000fd5b6000821982111561103257611032611009565b500190565b634e487b7160e01b600052600160045260246000fd5b6020808252818101527f4f776e61626c653a2063616c6c6572206973206e6f7420746865206f776e6572604082015260600190565b600081600019048311821515161561109c5761109c611009565b500290565b6000826110be57634e487b7160e01b600052601260045260246000fd5b500490565b6000828210156110d5576110d5611009565b500390565b6000602082840312156110ec57600080fd5b81518015158114610e1157600080fd5b60005b838110156111175781810151838201526020016110ff565b83811115610ca25750506000910152565b6000825161113a8184602087016110fc565b9190910192915050565b60208152600082518060208401526111638160408501602087016110fc565b601f01601f1916919091016040019291505056fea26469706673582212202520288f8a4322faf0281b8d65473c16610692bac8e252cbb76fb7d4a9d1a6ae64736f6c634300080900334f776e61626c653a2063616c6c6572206973206e6f7420746865206f776e6572",
  "devdoc": {
    "author": "zapaz.eth",
    "details": "Bond is Ownable, access controled by onlyOwnerUse SafeERC20",
    "kind": "dev",
    "methods": {
      "bond(address,uint256)": {
        "params": {
          "amount": "amount of token to bond",
          "token": "bonded token address"
        },
        "returns": {
          "bondId": "Bond id"
        }
      },
      "bondsCount(address)": {
        "returns": {
          "_0": "number of bonds"
        }
      },
      "claim()": {
        "returns": {
          "claimed": "Rewards claimed succesfully"
        }
      },
      "claimBond(uint256)": {
        "returns": {
          "claimed": "Rewards claimed succesfully"
        }
      },
      "constructor": {
        "params": {
          "tokenRewards_": "Rewards token address",
          "vestingBlocks_": "Vesting duration in blocks"
        }
      },
      "owner()": {
        "details": "Returns the address of the current owner."
      },
      "renounceOwnership()": {
        "details": "Leaves the contract without owner. It will not be possible to call `onlyOwner` functions anymore. Can only be called by the current owner. NOTE: Renouncing ownership will leave the contract without an owner, thereby removing any functionality that is only available to the owner."
      },
      "rewardsBondOf(address,uint256)": {
        "returns": {
          "rewards": "Amount of rewards",
          "rewardsClaimable": "Amount of still claimable rewards",
          "rewardsClaimed": "Amount of rewards already claimed"
        }
      },
      "rewardsOf(address)": {
        "returns": {
          "rewards": "Amount of rewards",
          "rewardsClaimable": "Amount of still claimable rewards",
          "rewardsClaimed": "Amount of rewards already claimed"
        }
      },
      "setRewards(address,uint256)": {
        "params": {
          "token": "token address",
          "tokenRewardsRatio": "rewardsRatio for this token"
        }
      },
      "setTreasury(address)": {
        "params": {
          "treasury_": "treasury address"
        }
      },
      "setVestingBlocks(uint256)": {
        "params": {
          "vestingBlocks_": "vesting duration in blocks"
        }
      },
      "transferOwnership(address)": {
        "details": "Transfers ownership of the contract to a new account (`newOwner`). Can only be called by the current owner."
      },
      "withdraw(address,uint256)": {
        "params": {
          "amount": "amount withdraw",
          "token": "token withdraw"
        }
      }
    },
    "stateVariables": {
      "bonds": {
        "details": "bond index starts at 0 for each address"
      },
      "rewardsRatio": {
        "details": "rewardsRatio is per billion of token bonded"
      },
      "vestingBlocks": {
        "details": "defined in number of block"
      }
    },
    "title": "Simple Bond",
    "version": 1
  },
  "userdoc": {
    "kind": "user",
    "methods": {
      "bond(address,uint256)": {
        "notice": "Bond tokens"
      },
      "bonds(address,uint256)": {
        "notice": "Bonds for each address"
      },
      "bondsCount(address)": {
        "notice": "Get number of bonds for address"
      },
      "claim()": {
        "notice": "Claim all rewards"
      },
      "claimBond(uint256)": {
        "notice": "Claim bond rewards"
      },
      "constructor": {
        "notice": "Simple Bond constructor"
      },
      "rewardsBondOf(address,uint256)": {
        "notice": "Bond rewards balance: amount and already claimed"
      },
      "rewardsOf(address)": {
        "notice": "Bond rewards balance: amount and already claimed"
      },
      "rewardsRatio(address)": {
        "notice": "Rewards ratio for token bonded"
      },
      "setRewards(address,uint256)": {
        "notice": "Set Rewards for specific Token"
      },
      "setTreasury(address)": {
        "notice": "Set treasury address"
      },
      "setVestingBlocks(uint256)": {
        "notice": "Set vesting duration"
      },
      "tokenRewards()": {
        "notice": "Rewards token address"
      },
      "totalClaimedRewards()": {
        "notice": "Total rewards claimed"
      },
      "totalRewards()": {
        "notice": "Total rewards"
      },
      "treasury()": {
        "notice": "Treasury address"
      },
      "vestingBlocks()": {
        "notice": "Vesting period"
      },
      "withdraw(address,uint256)": {
        "notice": "Withdraw token from the smartcontract, only for owner"
      }
    },
    "notice": "SimpleBond is a simple Bond mecanism, allowing to sell tokens bonded and get rewards tokensThe reward token is fully claimable only after the vesting period",
    "version": 1
  },
  "storageLayout": {
    "storage": [
      {
        "astId": 7,
        "contract": "contracts/SimpleBond.sol:SimpleBond",
        "label": "_owner",
        "offset": 0,
        "slot": "0",
        "type": "t_address"
      },
      {
        "astId": 1364,
        "contract": "contracts/SimpleBond.sol:SimpleBond",
        "label": "rewardsRatio",
        "offset": 0,
        "slot": "1",
        "type": "t_mapping(t_address,t_uint256)"
      },
      {
        "astId": 1367,
        "contract": "contracts/SimpleBond.sol:SimpleBond",
        "label": "vestingBlocks",
        "offset": 0,
        "slot": "2",
        "type": "t_uint256"
      },
      {
        "astId": 1374,
        "contract": "contracts/SimpleBond.sol:SimpleBond",
        "label": "bonds",
        "offset": 0,
        "slot": "3",
        "type": "t_mapping(t_address,t_array(t_struct(Bond)1356_storage)dyn_storage)"
      },
      {
        "astId": 1377,
        "contract": "contracts/SimpleBond.sol:SimpleBond",
        "label": "totalRewards",
        "offset": 0,
        "slot": "4",
        "type": "t_uint256"
      },
      {
        "astId": 1380,
        "contract": "contracts/SimpleBond.sol:SimpleBond",
        "label": "totalClaimedRewards",
        "offset": 0,
        "slot": "5",
        "type": "t_uint256"
      },
      {
        "astId": 1383,
        "contract": "contracts/SimpleBond.sol:SimpleBond",
        "label": "treasury",
        "offset": 0,
        "slot": "6",
        "type": "t_address"
      }
    ],
    "types": {
      "t_address": {
        "encoding": "inplace",
        "label": "address",
        "numberOfBytes": "20"
      },
      "t_array(t_struct(Bond)1356_storage)dyn_storage": {
        "base": "t_struct(Bond)1356_storage",
        "encoding": "dynamic_array",
        "label": "struct SimpleBond.Bond[]",
        "numberOfBytes": "32"
      },
      "t_mapping(t_address,t_array(t_struct(Bond)1356_storage)dyn_storage)": {
        "encoding": "mapping",
        "key": "t_address",
        "label": "mapping(address => struct SimpleBond.Bond[])",
        "numberOfBytes": "32",
        "value": "t_array(t_struct(Bond)1356_storage)dyn_storage"
      },
      "t_mapping(t_address,t_uint256)": {
        "encoding": "mapping",
        "key": "t_address",
        "label": "mapping(address => uint256)",
        "numberOfBytes": "32",
        "value": "t_uint256"
      },
      "t_struct(Bond)1356_storage": {
        "encoding": "inplace",
        "label": "struct SimpleBond.Bond",
        "members": [
          {
            "astId": 1347,
            "contract": "contracts/SimpleBond.sol:SimpleBond",
            "label": "token",
            "offset": 0,
            "slot": "0",
            "type": "t_address"
          },
          {
            "astId": 1349,
            "contract": "contracts/SimpleBond.sol:SimpleBond",
            "label": "amount",
            "offset": 0,
            "slot": "1",
            "type": "t_uint256"
          },
          {
            "astId": 1351,
            "contract": "contracts/SimpleBond.sol:SimpleBond",
            "label": "rewards",
            "offset": 0,
            "slot": "2",
            "type": "t_uint256"
          },
          {
            "astId": 1353,
            "contract": "contracts/SimpleBond.sol:SimpleBond",
            "label": "claimed",
            "offset": 0,
            "slot": "3",
            "type": "t_uint256"
          },
          {
            "astId": 1355,
            "contract": "contracts/SimpleBond.sol:SimpleBond",
            "label": "block",
            "offset": 0,
            "slot": "4",
            "type": "t_uint256"
          }
        ],
        "numberOfBytes": "160"
      },
      "t_uint256": {
        "encoding": "inplace",
        "label": "uint256",
        "numberOfBytes": "32"
      }
    }
  }
}